{
  "contractName": "Manager",
  "abi": [
    {
      "constant": false,
      "inputs": [],
      "name": "adminFunc",
      "outputs": [
        {
          "name": "",
          "type": "bool"
        }
      ],
      "payable": false,
      "stateMutability": "nonpayable",
      "type": "function",
      "signature": "0x462ec45c"
    },
    {
      "constant": false,
      "inputs": [
        {
          "name": "require_amount",
          "type": "uint256"
        }
      ],
      "name": "postBorrow",
      "outputs": [
        {
          "name": "",
          "type": "bool"
        }
      ],
      "payable": false,
      "stateMutability": "nonpayable",
      "type": "function",
      "signature": "0x9dcab05e"
    },
    {
      "constant": false,
      "inputs": [
        {
          "name": "index",
          "type": "uint256"
        }
      ],
      "name": "lendMoney",
      "outputs": [
        {
          "name": "",
          "type": "bool"
        }
      ],
      "payable": true,
      "stateMutability": "payable",
      "type": "function",
      "signature": "0xbec228d8"
    },
    {
      "constant": false,
      "inputs": [
        {
          "name": "amount",
          "type": "uint256"
        },
        {
          "name": "index",
          "type": "uint256"
        }
      ],
      "name": "lendMoneyByDeposit",
      "outputs": [
        {
          "name": "",
          "type": "bool"
        }
      ],
      "payable": false,
      "stateMutability": "nonpayable",
      "type": "function",
      "signature": "0x3c17862b"
    },
    {
      "constant": true,
      "inputs": [
        {
          "name": "amount_to_pay",
          "type": "uint256"
        },
        {
          "name": "interest_rate",
          "type": "uint256"
        },
        {
          "name": "last_repay_time",
          "type": "uint256"
        },
        {
          "name": "current_timestamp",
          "type": "uint256"
        }
      ],
      "name": "calculateAccumulatedValue",
      "outputs": [
        {
          "name": "accumulatedValue",
          "type": "uint256"
        }
      ],
      "payable": false,
      "stateMutability": "pure",
      "type": "function",
      "signature": "0xa9af8b9b"
    },
    {
      "constant": false,
      "inputs": [
        {
          "name": "debtIndex",
          "type": "uint256"
        }
      ],
      "name": "payLoan",
      "outputs": [
        {
          "name": "",
          "type": "bool"
        }
      ],
      "payable": true,
      "stateMutability": "payable",
      "type": "function",
      "signature": "0xa8d7b3ec"
    },
    {
      "constant": false,
      "inputs": [
        {
          "name": "amount",
          "type": "uint256"
        },
        {
          "name": "debtIndex",
          "type": "uint256"
        }
      ],
      "name": "payLoanByDeposit",
      "outputs": [
        {
          "name": "",
          "type": "bool"
        }
      ],
      "payable": false,
      "stateMutability": "nonpayable",
      "type": "function",
      "signature": "0x10d980ed"
    },
    {
      "constant": false,
      "inputs": [],
      "name": "deposit",
      "outputs": [
        {
          "name": "",
          "type": "bool"
        }
      ],
      "payable": true,
      "stateMutability": "payable",
      "type": "function",
      "signature": "0xd0e30db0"
    },
    {
      "constant": true,
      "inputs": [],
      "name": "getBalance",
      "outputs": [
        {
          "name": "",
          "type": "uint256"
        }
      ],
      "payable": false,
      "stateMutability": "view",
      "type": "function",
      "signature": "0x12065fe0"
    },
    {
      "constant": false,
      "inputs": [
        {
          "name": "amount",
          "type": "uint256"
        }
      ],
      "name": "withdrawl",
      "outputs": [
        {
          "name": "",
          "type": "bool"
        }
      ],
      "payable": false,
      "stateMutability": "nonpayable",
      "type": "function",
      "signature": "0xe4480dd8"
    },
    {
      "constant": true,
      "inputs": [],
      "name": "getUserMaximumBorrowAmount",
      "outputs": [
        {
          "name": "",
          "type": "uint256"
        }
      ],
      "payable": false,
      "stateMutability": "view",
      "type": "function",
      "signature": "0x6e17a1ed"
    },
    {
      "constant": true,
      "inputs": [],
      "name": "getUserCredit",
      "outputs": [
        {
          "name": "",
          "type": "uint256"
        }
      ],
      "payable": false,
      "stateMutability": "view",
      "type": "function",
      "signature": "0x6799ed5f"
    },
    {
      "constant": true,
      "inputs": [],
      "name": "getBorrowListLength",
      "outputs": [
        {
          "name": "length",
          "type": "uint256"
        }
      ],
      "payable": false,
      "stateMutability": "view",
      "type": "function",
      "signature": "0xdab68798"
    },
    {
      "constant": true,
      "inputs": [
        {
          "name": "index",
          "type": "uint256"
        }
      ],
      "name": "getBorrowInfoFromBorrowList",
      "outputs": [
        {
          "name": "borrow_index",
          "type": "uint256"
        },
        {
          "name": "debt_index",
          "type": "uint256"
        },
        {
          "name": "lenderNumber",
          "type": "uint256"
        },
        {
          "name": "interest_rate",
          "type": "uint256"
        },
        {
          "name": "borrower",
          "type": "address"
        },
        {
          "name": "amount_request",
          "type": "uint256"
        },
        {
          "name": "amount_to_pay",
          "type": "uint256"
        },
        {
          "name": "last_repay_time",
          "type": "uint256"
        },
        {
          "name": "next_repay_time",
          "type": "uint256"
        },
        {
          "name": "is_lend",
          "type": "bool"
        },
        {
          "name": "is_pay_off",
          "type": "bool"
        },
        {
          "name": "initial_request",
          "type": "uint256"
        }
      ],
      "payable": false,
      "stateMutability": "view",
      "type": "function",
      "signature": "0x50bfab14"
    },
    {
      "constant": true,
      "inputs": [],
      "name": "getLendListLength",
      "outputs": [
        {
          "name": "length",
          "type": "uint256"
        }
      ],
      "payable": false,
      "stateMutability": "view",
      "type": "function",
      "signature": "0x3d786a03"
    },
    {
      "constant": true,
      "inputs": [
        {
          "name": "index",
          "type": "uint256"
        }
      ],
      "name": "getLendInfoFromBorrowList",
      "outputs": [
        {
          "name": "lend_index",
          "type": "uint256"
        },
        {
          "name": "debt_index",
          "type": "uint256"
        },
        {
          "name": "lenderAddress",
          "type": "address"
        },
        {
          "name": "lend_amount",
          "type": "uint256"
        },
        {
          "name": "amount_remain",
          "type": "uint256"
        },
        {
          "name": "is_pay_off",
          "type": "bool"
        },
        {
          "name": "initial_lend",
          "type": "uint256"
        }
      ],
      "payable": false,
      "stateMutability": "view",
      "type": "function",
      "signature": "0xdf4dedab"
    },
    {
      "constant": true,
      "inputs": [],
      "name": "getDebtListLength",
      "outputs": [
        {
          "name": "length",
          "type": "uint256"
        }
      ],
      "payable": false,
      "stateMutability": "view",
      "type": "function",
      "signature": "0xd5892ab1"
    },
    {
      "constant": true,
      "inputs": [
        {
          "name": "index",
          "type": "uint256"
        }
      ],
      "name": "getDebtInfoFromDebtsList",
      "outputs": [
        {
          "name": "borrow_index",
          "type": "uint256"
        },
        {
          "name": "lend_index",
          "type": "uint256[]"
        },
        {
          "name": "lender_number",
          "type": "uint256"
        }
      ],
      "payable": false,
      "stateMutability": "view",
      "type": "function",
      "signature": "0x8d6d7e19"
    },
    {
      "constant": true,
      "inputs": [],
      "name": "getUserDebtIndexList",
      "outputs": [
        {
          "name": "debts_index_list",
          "type": "uint256[]"
        },
        {
          "name": "length",
          "type": "uint256"
        }
      ],
      "payable": false,
      "stateMutability": "view",
      "type": "function",
      "signature": "0x0efbf719"
    },
    {
      "constant": true,
      "inputs": [
        {
          "name": "debtIndex",
          "type": "uint256"
        }
      ],
      "name": "getUserDebtRole",
      "outputs": [
        {
          "name": "user_role",
          "type": "uint256"
        }
      ],
      "payable": false,
      "stateMutability": "view",
      "type": "function",
      "signature": "0x738c0f1e"
    },
    {
      "constant": true,
      "inputs": [
        {
          "name": "user",
          "type": "address"
        }
      ],
      "name": "calculateInterestRate",
      "outputs": [
        {
          "name": "interest_rate",
          "type": "uint256"
        }
      ],
      "payable": false,
      "stateMutability": "view",
      "type": "function",
      "signature": "0xc0d18843"
    }
  ],
  "bytecode": "0x608060405234801561001057600080fd5b50613424806100206000396000f3fe60806040526004361061011d576000357c0100000000000000000000000000000000000000000000000000000000900463ffffffff1680630efbf7191461012257806310d980ed1461019557806312065fe0146101f25780633c17862b1461021d5780633d786a031461027a578063462ec45c146102a557806350bfab14146102d45780636799ed5f146103a45780636e17a1ed146103cf578063738c0f1e146103fa5780638d6d7e19146104495780639dcab05e146104e7578063a8d7b3ec1461053a578063a9af8b9b14610580578063bec228d8146105ed578063c0d1884314610633578063d0e30db014610698578063d5892ab1146106ba578063dab68798146106e5578063df4dedab14610710578063e4480dd8146107b9575b600080fd5b34801561012e57600080fd5b5061013761080c565b6040518080602001838152602001828103825284818151815260200191508051906020019060200280838360005b83811015610180578082015181840152602081019050610165565b50505050905001935050505060405180910390f35b3480156101a157600080fd5b506101d8600480360360408110156101b857600080fd5b810190808035906020019092919080359060200190929190505050610926565b604051808215151515815260200191505060405180910390f35b3480156101fe57600080fd5b50610207610cff565b6040518082815260200191505060405180910390f35b34801561022957600080fd5b506102606004803603604081101561024057600080fd5b810190808035906020019092919080359060200190929190505050610d46565b604051808215151515815260200191505060405180910390f35b34801561028657600080fd5b5061028f6114c5565b6040518082815260200191505060405180910390f35b3480156102b157600080fd5b506102ba6114d2565b604051808215151515815260200191505060405180910390f35b3480156102e057600080fd5b5061030d600480360360208110156102f757600080fd5b8101908080359060200190929190505050611a49565b604051808d81526020018c81526020018b81526020018a81526020018973ffffffffffffffffffffffffffffffffffffffff1673ffffffffffffffffffffffffffffffffffffffff16815260200188815260200187815260200186815260200185815260200184151515158152602001831515151581526020018281526020019c5050505050505050505050505060405180910390f35b3480156103b057600080fd5b506103b9611b2d565b6040518082815260200191505060405180910390f35b3480156103db57600080fd5b506103e4611bc2565b6040518082815260200191505060405180910390f35b34801561040657600080fd5b506104336004803603602081101561041d57600080fd5b8101908080359060200190929190505050611c68565b6040518082815260200191505060405180910390f35b34801561045557600080fd5b506104826004803603602081101561046c57600080fd5b8101908080359060200190929190505050611d17565b6040518084815260200180602001838152602001828103825284818151815260200191508051906020019060200280838360005b838110156104d15780820151818401526020810190506104b6565b5050505090500194505050505060405180910390f35b3480156104f357600080fd5b506105206004803603602081101561050a57600080fd5b8101908080359060200190929190505050611e1d565b604051808215151515815260200191505060405180910390f35b6105666004803603602081101561055057600080fd5b8101908080359060200190929190505050612037565b604051808215151515815260200191505060405180910390f35b34801561058c57600080fd5b506105d7600480360360808110156105a357600080fd5b8101908080359060200190929190803590602001909291908035906020019092919080359060200190929190505050612375565b6040518082815260200191505060405180910390f35b6106196004803603602081101561060357600080fd5b81019080803590602001909291905050506123e7565b604051808215151515815260200191505060405180910390f35b34801561063f57600080fd5b506106826004803603602081101561065657600080fd5b81019080803573ffffffffffffffffffffffffffffffffffffffff169060200190929190505050612aca565b6040518082815260200191505060405180910390f35b6106a0612b84565b604051808215151515815260200191505060405180910390f35b3480156106c657600080fd5b506106cf612be3565b6040518082815260200191505060405180910390f35b3480156106f157600080fd5b506106fa612bef565b6040518082815260200191505060405180910390f35b34801561071c57600080fd5b506107496004803603602081101561073357600080fd5b8101908080359060200190929190505050612bfc565b604051808881526020018781526020018673ffffffffffffffffffffffffffffffffffffffff1673ffffffffffffffffffffffffffffffffffffffff1681526020018581526020018481526020018315151515815260200182815260200197505050505050505060405180910390f35b3480156107c557600080fd5b506107f2600480360360208110156107dc57600080fd5b8101908080359060200190929190505050612ca5565b604051808215151515815260200191505060405180910390f35b6060600080600360003373ffffffffffffffffffffffffffffffffffffffff1673ffffffffffffffffffffffffffffffffffffffff1681526020019081526020016000208054905090506060816040519080825280602002602001820160405280156108875781602001602082028038833980820191505090505b50905060008090505b8281101561091857600360003373ffffffffffffffffffffffffffffffffffffffff1673ffffffffffffffffffffffffffffffffffffffff168152602001908152602001600020818154811015156108e457fe5b906000526020600020015482828151811015156108fd57fe5b90602001906020020181815250508080600101915050610890565b508081519350935050509091565b60008060008381548110151561093857fe5b9060005260206000209060030201905060006001826001015481548110151561095d57fe5b90600052602060002090600b0201905060008160040160009054906101000a900473ffffffffffffffffffffffffffffffffffffffff1690503373ffffffffffffffffffffffffffffffffffffffff168173ffffffffffffffffffffffffffffffffffffffff161415156109d057600080fd5b85600460003373ffffffffffffffffffffffffffffffffffffffff1673ffffffffffffffffffffffffffffffffffffffff1681526020019081526020016000205410151515610a1e57600080fd5b6000610a3883600601548460030154856007015442612375565b905060008360060154905081846006018190555083600601548811151515610a5f57600080fd5b600080600a84811515610a6e57fe5b0414610a8657600a83811515610a8057fe5b04610a88565b825b9050808910151515610a9957600080fd5b88856006016000828254039250508190555060008090505b8560020154811015610c4857600060028860020183815481101515610ad257fe5b9060005260206000200154815481101515610ae957fe5b906000526020600020906007020190508060050160009054906101000a900460ff161515610c3a576103e885610b258360040154876003612d97565b02811515610b2f57fe5b048160040181905550600080826004015414610b69576103e8610b588360040154886003612d97565b8d02811515610b6357fe5b04610b6c565b60005b90508160040154811115610b895760008260040181905550610b9c565b8082600401600082825403925050819055505b80600460008460020160009054906101000a900473ffffffffffffffffffffffffffffffffffffffff1673ffffffffffffffffffffffffffffffffffffffff1673ffffffffffffffffffffffffffffffffffffffff16815260200190815260200160002060008282540192505081905550600082600401541415610c385760018260050160006101000a81548160ff0219169083151502179055505b505b508080600101915050610ab1565b50428560070181905550600085600601541415610c8b5760018560090160016101000a81548160ff02191690831515021790555060008560080181905550610ca2565b601e60010285600801600082825401925050819055505b88600460003373ffffffffffffffffffffffffffffffffffffffff1673ffffffffffffffffffffffffffffffffffffffff168152602001908152602001600020600082825403925050819055506001965050505050505092915050565b6000600460003373ffffffffffffffffffffffffffffffffffffffff1673ffffffffffffffffffffffffffffffffffffffff16815260200190815260200160002054905090565b600080600183815481101515610d5857fe5b90600052602060002090600b020190508060040160009054906101000a900473ffffffffffffffffffffffffffffffffffffffff1673ffffffffffffffffffffffffffffffffffffffff163373ffffffffffffffffffffffffffffffffffffffff1614151515610dc757600080fd5b600084111515610dd657600080fd5b80600501548411151515610de957600080fd5b600460003373ffffffffffffffffffffffffffffffffffffffff1673ffffffffffffffffffffffffffffffffffffffff168152602001908152602001600020548411151515610e3757600080fd5b83816005016000828254039250508190555083816006016000828254019250508190555060008160020154111561106a576000808260010154815481101515610e7c57fe5b90600052602060002090600302019050600280549050816002018360020154815481101515610ea757fe5b9060005260206000200181905550610ebd613292565b60e0604051908101604052806002805490508152602001846001015481526020013373ffffffffffffffffffffffffffffffffffffffff16815260200187815260200187815260200160001515815260200187815250905060036000826040015173ffffffffffffffffffffffffffffffffffffffff1673ffffffffffffffffffffffffffffffffffffffff1681526020019081526020016000208360010154908060018154018082558091505090600182039060005260206000200160009091929091909150555060028190806001815401808255809150509060018203906000526020600020906007020160009091929091909150600082015181600001556020820151816001015560408201518160020160006101000a81548173ffffffffffffffffffffffffffffffffffffffff021916908373ffffffffffffffffffffffffffffffffffffffff160217905550606082015181600301556080820151816004015560a08201518160050160006101000a81548160ff02191690831515021790555060c082015181600601555050506001836002016000828254019250508190555050506113c2565b428160070181905550601e6001028160070154018160080181905550606060646040519080825280602002602001820160405280156110b85781602001602082028038833980820191505090505b5090506110c36132e8565b60606040519081016040528060008054905081526020018681526020018381525090506002805490508160400151846002015481518110151561110257fe5b9060200190602002018181525050600360008460040160009054906101000a900473ffffffffffffffffffffffffffffffffffffffff1673ffffffffffffffffffffffffffffffffffffffff1673ffffffffffffffffffffffffffffffffffffffff1681526020019081526020016000206000805490509080600181540180825580915050906001820390600052602060002001600090919290919091505550600360003373ffffffffffffffffffffffffffffffffffffffff1673ffffffffffffffffffffffffffffffffffffffff1681526020019081526020016000206000805490509080600181540180825580915050906001820390600052602060002001600090919290919091505550611218613292565b60e060405190810160405280600280549050815260200160008054905081526020013373ffffffffffffffffffffffffffffffffffffffff168152602001888152602001888152602001600015158152602001888152509050600080549050846001018190555060008290806001815401808255809150509060018203906000526020600020906003020160009091929091909150600082015181600001556020820151816001015560408201518160020190805190602001906112dd92919061330a565b5050505060028190806001815401808255809150509060018203906000526020600020906007020160009091929091909150600082015181600001556020820151816001015560408201518160020160006101000a81548173ffffffffffffffffffffffffffffffffffffffff021916908373ffffffffffffffffffffffffffffffffffffffff160217905550606082015181600301556080820151816004015560a08201518160050160006101000a81548160ff02191690831515021790555060c08201518160060155505050600184600201600082825401925050819055505050505b6064816002015414806113d9575060008160050154145b156113fc5760018160090160006101000a81548160ff0219169083151502179055505b83600460008360040160009054906101000a900473ffffffffffffffffffffffffffffffffffffffff1673ffffffffffffffffffffffffffffffffffffffff1673ffffffffffffffffffffffffffffffffffffffff1681526020019081526020016000206000828254019250508190555083600460003373ffffffffffffffffffffffffffffffffffffffff1673ffffffffffffffffffffffffffffffffffffffff16815260200190815260200160002060008282540392505081905550600191505092915050565b6000600280549050905090565b600080600090505b6006805490508110156118be5760006006828154811015156114f857fe5b9060005260206000200160009054906101000a900473ffffffffffffffffffffffffffffffffffffffff169050678ac7230489e80000600460008373ffffffffffffffffffffffffffffffffffffffff1673ffffffffffffffffffffffffffffffffffffffff168152602001908152602001600020541015156116a4576000600860008373ffffffffffffffffffffffffffffffffffffffff1673ffffffffffffffffffffffffffffffffffffffff168152602001908152602001600020819055506001600760008373ffffffffffffffffffffffffffffffffffffffff1673ffffffffffffffffffffffffffffffffffffffff16815260200190815260200160002060008282540192505081905550601e600760008373ffffffffffffffffffffffffffffffffffffffff1673ffffffffffffffffffffffffffffffffffffffff16815260200190815260200160002054141561169f5761165981612db3565b6000600760008373ffffffffffffffffffffffffffffffffffffffff1673ffffffffffffffffffffffffffffffffffffffff168152602001908152602001600020819055505b6118b0565b6000600760008373ffffffffffffffffffffffffffffffffffffffff1673ffffffffffffffffffffffffffffffffffffffff168152602001908152602001600020819055506503782dace9d9600460008373ffffffffffffffffffffffffffffffffffffffff1673ffffffffffffffffffffffffffffffffffffffff168152602001908152602001600020541015611869576001600860008373ffffffffffffffffffffffffffffffffffffffff1673ffffffffffffffffffffffffffffffffffffffff16815260200190815260200160002060008282540192505081905550601e600860008373ffffffffffffffffffffffffffffffffffffffff1673ffffffffffffffffffffffffffffffffffffffff16815260200190815260200160002054141561186457600b600560008373ffffffffffffffffffffffffffffffffffffffff1673ffffffffffffffffffffffffffffffffffffffff16815260200190815260200160002054111561181e5761181d81612e04565b5b6000600860008373ffffffffffffffffffffffffffffffffffffffff1673ffffffffffffffffffffffffffffffffffffffff168152602001908152602001600020819055505b6118af565b6000600860008373ffffffffffffffffffffffffffffffffffffffff1673ffffffffffffffffffffffffffffffffffffffff168152602001908152602001600020819055505b5b5080806001019150506114da565b5060008090505b600080549050811015611a4557600080828154811015156118e257fe5b9060005260206000209060030201905060006001826001015481548110151561190757fe5b90600052602060002090600b020190508060090160019054906101000a900460ff16806119375750428160080154115b15611943575050611a38565b600061195d82600601548360030154846007015442612375565b9050600080600a8381151561196e57fe5b041461198657600a8281151561198057fe5b04611988565b815b905080600460008560040160009054906101000a900473ffffffffffffffffffffffffffffffffffffffff1673ffffffffffffffffffffffffffffffffffffffff1673ffffffffffffffffffffffffffffffffffffffff168152602001908152602001600020541015611a2757611a228360040160009054906101000a900473ffffffffffffffffffffffffffffffffffffffff16612e04565b611a33565b611a318186612e9e565b505b505050505b80806001019150506118c5565b5090565b6000806000806000806000806000806000806001805490508d101515611a6e57600080fd5b600060018e815481101515611a7f57fe5b90600052602060002090600b0201905080600001548160010154826002015483600301548460040160009054906101000a900473ffffffffffffffffffffffffffffffffffffffff1685600501548660060154876007015488600801548960090160009054906101000a900460ff168a60090160019054906101000a900460ff168b600a01549c509c509c509c509c509c509c509c509c509c509c509c505091939597999b5091939597999b565b600080600560003373ffffffffffffffffffffffffffffffffffffffff1673ffffffffffffffffffffffffffffffffffffffff1681526020019081526020016000205414611bba57600560003373ffffffffffffffffffffffffffffffffffffffff1673ffffffffffffffffffffffffffffffffffffffff16815260200190815260200160002054611bbd565b600a5b905090565b600080600560003373ffffffffffffffffffffffffffffffffffffffff1673ffffffffffffffffffffffffffffffffffffffff1681526020019081526020016000205414611c5957670de0b6b3a7640000600560003373ffffffffffffffffffffffffffffffffffffffff1673ffffffffffffffffffffffffffffffffffffffff1681526020019081526020016000205402611c63565b678ac7230489e800005b905090565b6000806001600084815481101515611c7c57fe5b906000526020600020906003020160010154815481101515611c9a57fe5b90600052602060002090600b020190506000600290503373ffffffffffffffffffffffffffffffffffffffff168260040160009054906101000a900473ffffffffffffffffffffffffffffffffffffffff1673ffffffffffffffffffffffffffffffffffffffff161415611d0d57600190505b8092505050919050565b600060606000808054905084101515611d2f57600080fd5b60008085815481101515611d3f57fe5b90600052602060002090600302019050600060018260010154815481101515611d6457fe5b90600052602060002090600b02019050600081600201549050606081604051908082528060200260200182016040528015611dae5781602001602082028038833980820191505090505b50905060008090505b82811015611e04578460020181815481101515611dd057fe5b90600052602060002001548282815181101515611de957fe5b90602001906020020181815250508080600101915050611db7565b5083600101548183965096509650505050509193909250565b6000611e283361319b565b6000611e3333612aca565b90506003600560003373ffffffffffffffffffffffffffffffffffffffff1673ffffffffffffffffffffffffffffffffffffffff1681526020019081526020016000205410151515611e8457600080fd5b600083111515611e9357600080fd5b611e9b613357565b61018060405190810160405280600180549050815260200160008152602001600081526020018381526020013373ffffffffffffffffffffffffffffffffffffffff1681526020018581526020016000815260200160008152602001600081526020016000151581526020016000151581526020018581525090506001819080600181540180825580915050906001820390600052602060002090600b0201600090919290919091506000820151816000015560208201518160010155604082015181600201556060820151816003015560808201518160040160006101000a81548173ffffffffffffffffffffffffffffffffffffffff021916908373ffffffffffffffffffffffffffffffffffffffff16021790555060a0820151816005015560c0820151816006015560e0820151816007015561010082015181600801556101208201518160090160006101000a81548160ff0219169083151502179055506101408201518160090160016101000a81548160ff02191690831515021790555061016082015181600a0155505050600192505050919050565b60008060008381548110151561204957fe5b9060005260206000209060030201905060006001826001015481548110151561206e57fe5b90600052602060002090600b0201905060008160040160009054906101000a900473ffffffffffffffffffffffffffffffffffffffff1690503373ffffffffffffffffffffffffffffffffffffffff168173ffffffffffffffffffffffffffffffffffffffff161415156120e157600080fd5b60006120fb83600601548460030154856007015442612375565b90506000836006015490508184600601819055508360060154341115151561212257600080fd5b600080600a8481151561213157fe5b041461214957600a8381151561214357fe5b0461214b565b825b905080341015151561215c57600080fd5b34856006016000828254039250508190555060008090505b856002015481101561230c5760006002886002018381548110151561219557fe5b90600052602060002001548154811015156121ac57fe5b906000526020600020906007020190508060050160009054906101000a900460ff1615156122fe576103e8856121e88360040154876003612d97565b028115156121f257fe5b04816004018190555060008082600401541461222c576103e861221b8360040154886003612d97565b340281151561222657fe5b0461222f565b60005b905081600401548110151561224d5760008260040181905550612260565b8082600401600082825403925050819055505b80600460008460020160009054906101000a900473ffffffffffffffffffffffffffffffffffffffff1673ffffffffffffffffffffffffffffffffffffffff1673ffffffffffffffffffffffffffffffffffffffff168152602001908152602001600020600082825401925050819055506000826004015414156122fc5760018260050160006101000a81548160ff0219169083151502179055505b505b508080600101915050612174565b5042856007018190555060008560060154141561234f5760018560090160016101000a81548160ff02191690831515021790555060008560080181905550612366565b601e60010285600801600082825401925050819055505b60019650505050505050919050565b600080601e60010284840381151561238957fe5b049050600080600c6064888a0281151561239f57fe5b048115156123a957fe5b048302146123d357600c60648789028115156123c157fe5b048115156123cb57fe5b0482026123d6565b60015b905080870192505050949350505050565b6000806001838154811015156123f957fe5b90600052602060002090600b020190508060040160009054906101000a900473ffffffffffffffffffffffffffffffffffffffff1673ffffffffffffffffffffffffffffffffffffffff163373ffffffffffffffffffffffffffffffffffffffff161415151561246857600080fd5b60003411151561247757600080fd5b8060050154341115151561248a57600080fd5b3481600501600082825403925050819055503481600601600082825401925050819055506000816002015411156126bd5760008082600101548154811015156124cf57fe5b906000526020600020906003020190506002805490508160020183600201548154811015156124fa57fe5b9060005260206000200181905550612510613292565b60e0604051908101604052806002805490508152602001846001015481526020013373ffffffffffffffffffffffffffffffffffffffff16815260200134815260200134815260200160001515815260200134815250905060036000826040015173ffffffffffffffffffffffffffffffffffffffff1673ffffffffffffffffffffffffffffffffffffffff1681526020019081526020016000208360010154908060018154018082558091505090600182039060005260206000200160009091929091909150555060028190806001815401808255809150509060018203906000526020600020906007020160009091929091909150600082015181600001556020820151816001015560408201518160020160006101000a81548173ffffffffffffffffffffffffffffffffffffffff021916908373ffffffffffffffffffffffffffffffffffffffff160217905550606082015181600301556080820151816004015560a08201518160050160006101000a81548160ff02191690831515021790555060c08201518160060155505050600183600201600082825401925050819055505050612a15565b428160070181905550601e60010281600701540181600801819055506060606460405190808252806020026020018201604052801561270b5781602001602082028038833980820191505090505b5090506127166132e8565b60606040519081016040528060008054905081526020018681526020018381525090506002805490508160400151846002015481518110151561275557fe5b9060200190602002018181525050600360008460040160009054906101000a900473ffffffffffffffffffffffffffffffffffffffff1673ffffffffffffffffffffffffffffffffffffffff1673ffffffffffffffffffffffffffffffffffffffff1681526020019081526020016000206000805490509080600181540180825580915050906001820390600052602060002001600090919290919091505550600360003373ffffffffffffffffffffffffffffffffffffffff1673ffffffffffffffffffffffffffffffffffffffff168152602001908152602001600020600080549050908060018154018082558091505090600182039060005260206000200160009091929091909150555061286b613292565b60e060405190810160405280600280549050815260200160008054905081526020013373ffffffffffffffffffffffffffffffffffffffff1681526020013481526020013481526020016000151581526020013481525090506000805490508460010181905550600082908060018154018082558091505090600182039060005260206000209060030201600090919290919091506000820151816000015560208201518160010155604082015181600201908051906020019061293092919061330a565b5050505060028190806001815401808255809150509060018203906000526020600020906007020160009091929091909150600082015181600001556020820151816001015560408201518160020160006101000a81548173ffffffffffffffffffffffffffffffffffffffff021916908373ffffffffffffffffffffffffffffffffffffffff160217905550606082015181600301556080820151816004015560a08201518160050160006101000a81548160ff02191690831515021790555060c08201518160060155505050600184600201600082825401925050819055505050505b606481600201541480612a2c575060008160050154145b15612a4f5760018160090160006101000a81548160ff0219169083151502179055505b34600460008360040160009054906101000a900473ffffffffffffffffffffffffffffffffffffffff1673ffffffffffffffffffffffffffffffffffffffff1673ffffffffffffffffffffffffffffffffffffffff168152602001908152602001600020600082825401925050819055506001915050919050565b600080600560008473ffffffffffffffffffffffffffffffffffffffff1673ffffffffffffffffffffffffffffffffffffffff1681526020019081526020016000205490506000809050600a821115612b45576001600a8303600c03111515612b365760019050612b40565b600a8203600c0390505b612b62565b600a821415612b5757600c9050612b61565b81600a03600c0190505b5b6000821415612b7957600c90508092505050612b7f565b80925050505b919050565b6000612b8f3361319b565b34600460003373ffffffffffffffffffffffffffffffffffffffff1673ffffffffffffffffffffffffffffffffffffffff168152602001908152602001600020600082825401925050819055506001905090565b60008080549050905090565b6000600180549050905090565b600080600080600080600060028054905088101515612c1a57600080fd5b6000600289815481101515612c2b57fe5b90600052602060002090600702019050806000015481600101548260020160009054906101000a900473ffffffffffffffffffffffffffffffffffffffff16836003015484600401548560050160009054906101000a900460ff168660060154975097509750975097509750975050919395979092949650565b600080339050600460003373ffffffffffffffffffffffffffffffffffffffff1673ffffffffffffffffffffffffffffffffffffffff168152602001908152602001600020548311151515612cf957600080fd5b8073ffffffffffffffffffffffffffffffffffffffff166108fc849081150290604051600060405180830381858888f19350505050158015612d3f573d6000803e3d6000fd5b5082600460003373ffffffffffffffffffffffffffffffffffffffff1673ffffffffffffffffffffffffffffffffffffffff168152602001908152602001600020600082825403925050819055506001915050919050565b60008282600a0a8502811515612da957fe5b0490509392505050565b6001600560008373ffffffffffffffffffffffffffffffffffffffff1673ffffffffffffffffffffffffffffffffffffffff1681526020019081526020016000206000828254019250508190555050565b6001600560008373ffffffffffffffffffffffffffffffffffffffff1673ffffffffffffffffffffffffffffffffffffffff168152602001908152602001600020541115612e9b576001600560008373ffffffffffffffffffffffffffffffffffffffff1673ffffffffffffffffffffffffffffffffffffffff168152602001908152602001600020600082825403925050819055505b50565b600080600083815481101515612eb057fe5b90600052602060002090600302019050600060018260010154815481101515612ed557fe5b90600052602060002090600b020190506000612eff82600601548360030154846007015442612375565b905060008260060154905081836006018190555086836006016000828254039250508190555060008090505b83600201548110156130c257600060028660020183815481101515612f4c57fe5b9060005260206000200154815481101515612f6357fe5b906000526020600020906007020190508060050160009054906101000a900460ff1615156130b4576103e884612f9f8360040154866003612d97565b02811515612fa957fe5b048160040181905550600080826004015414612fe3576103e8612fd28360040154876003612d97565b8b02811515612fdd57fe5b04612fe6565b60005b905081600401548111156130035760008260040181905550613016565b8082600401600082825403925050819055505b80600460008460020160009054906101000a900473ffffffffffffffffffffffffffffffffffffffff1673ffffffffffffffffffffffffffffffffffffffff1673ffffffffffffffffffffffffffffffffffffffff168152602001908152602001600020600082825401925050819055506000826004015414156130b25760018260050160006101000a81548160ff0219169083151502179055505b505b508080600101915050612f2b565b504283600701819055506000836006015414156131055760018360090160016101000a81548160ff0219169083151502179055506000836008018190555061311c565b601e60010283600801600082825401925050819055505b86600460008560040160009054906101000a900473ffffffffffffffffffffffffffffffffffffffff1673ffffffffffffffffffffffffffffffffffffffff1673ffffffffffffffffffffffffffffffffffffffff16815260200190815260200160002060008282540392505081905550600194505050505092915050565b6000600560008373ffffffffffffffffffffffffffffffffffffffff1673ffffffffffffffffffffffffffffffffffffffff16815260200190815260200160002054141561328f5760068190806001815401808255809150509060018203906000526020600020016000909192909190916101000a81548173ffffffffffffffffffffffffffffffffffffffff021916908373ffffffffffffffffffffffffffffffffffffffff16021790555050600a600560008373ffffffffffffffffffffffffffffffffffffffff1673ffffffffffffffffffffffffffffffffffffffff168152602001908152602001600020819055505b50565b60e0604051908101604052806000815260200160008152602001600073ffffffffffffffffffffffffffffffffffffffff1681526020016000815260200160008152602001600015158152602001600081525090565b6060604051908101604052806000815260200160008152602001606081525090565b828054828255906000526020600020908101928215613346579160200282015b8281111561334557825182559160200191906001019061332a565b5b50905061335391906133d3565b5090565b6101806040519081016040528060008152602001600081526020016000815260200160008152602001600073ffffffffffffffffffffffffffffffffffffffff16815260200160008152602001600081526020016000815260200160008152602001600015158152602001600015158152602001600081525090565b6133f591905b808211156133f15760008160009055506001016133d9565b5090565b9056fea165627a7a723058204d1812478364f4a8f048630cecdd0e5290584b25a9a945ac60315d6d60881b650029",
  "source": "pragma solidity ^0.5.0;\r\n\r\ncontract Manager {\r\n    \r\n    /*\r\n    Struct of a Borrow\r\n    When user want to borrow money from other user\r\n    Manager will create a Borrow struct for him\r\n    Other user can lend money according to Borrow struct\r\n    */\r\n    struct Borrow{\r\n    \tuint256 index;\t\t\t//Index of this Borrow in borrow_list\r\n    \tuint256 debtIndex;\t\t//Index of the Debt (contain this Borrow) in debts_list\r\n\r\n    \tuint256 lenderNumber;\t//Number of lender, maximum 100\r\n\r\n        uint256 interestRate;   //Interest rate of this Borrow, if 30 means 30%, if 1 means 1%\r\n\r\n        address borrowerAddress;//Borrower address\r\n\r\n        uint256 amountRequest;\t//The request amount for borrower, initial amount\r\n        uint256 amountToPay;\t//The amount remains to be paid after the borrower get money from lenders\r\n\r\n        uint256 lastRepayTime;\t//Last repay time of this Borrow, it is timestamp\r\n        uint256 nextRepayTime;\t//Next repay time of this Borrow, it is timestamp\r\n        \r\n        bool isLend;\t\t\t//default is false, after lenderNumber == 100 or amountRequest == 0, it becomes true\r\n        bool isPayOff;\t\t\t//If user has paid off the amountToPay in this Borrow, which means amountToPay == 0, then isPayOff = true\r\n\r\n        uint256 initialRequest;\r\n    }\r\n    \r\n    \r\n    /*\r\n    Struct of a Lend\r\n    When user want to lend money to a specific Borrow\r\n    Manager will create a Lend struct for him\r\n    */\r\n    struct Lend{\r\n    \tuint256 index;\t\t\t//Index of this Lend in lend_list\r\n    \tuint256 debtIndex;\t\t//Index of the Debt (contain this Lend) in debts_list\r\n\r\n        address lenderAddress;\t//Lender address\r\n\r\n        uint256 lendAmount;\t\t//The amount that Lender initially lend to borrower\r\n        uint256 amountRemain;\t//The remain amount that the borrow should repay to the lender\r\n\r\n        bool isPayOff;\t\t\t//If borrower has paid off thi Lend's amountRemain, which means amountRemain == 0, then isPayOff = true\r\n\r\n        uint256 initialLend;\r\n    }\r\n    \r\n    \r\n    /* \r\n    Struct of a Debt\r\n    When both Lend and Borrow struct are created\r\n    Manager will create a Debt struct\r\n    Then bind the Lends index and Borrow index together into a Debt struct\r\n    */\r\n    struct Debt{\r\n\t    uint256 index;\t\t\t//Index of this Debt in debts_list\r\n\t    uint256 borrowIndex;\t//Index of the Borrow in this Debt in borrow_list\r\n\t    uint256[] lendIndex;\t//Index list, which contains all the index of Lends in lend_list\r\n    }\r\n\r\n\r\n    Debt[] debts_list;\t\t//An array to store all the Debt\r\n    Borrow[] borrow_list;\t//An array to store all the Borrow\r\n\tLend[] lend_list;\t\t//An array to store all the Lend\r\n    \r\n\r\n    //A mapper to stroe all the indexs of debts_list which are connected to this user address\r\n\tmapping(address => uint256 []) user_debts_index; \r\n\t\r\n\r\n\t//A mapper to stroe balances of this user address\r\n\tmapping(address => uint256) balances;\r\n\t\r\n\r\n\t//A mapper to stroe user credit of this user address\r\n\tmapping(address => uint256) credit;\r\n\r\n\r\n\t//A list to save the user who has credit\r\n\taddress[] hasCreditUser;\r\n\r\n\r\n\t//This variable is used to count the number of times that user's credit > INCREASE_LINE\r\n\tmapping(address => uint256) above_increase_times;\r\n\tmapping(address => uint256) below_standard_times;\r\n\r\n\r\n\t//Constant value of deposit that will increase user's credit\r\n\tuint256 constant INCREASE_LINE = 10**19;\r\n\tuint256 constant STANDARD_LINE = 5**18;\r\n\r\n\r\n\t//Constant value of day of month\r\n\tuint256 constant DAY_OF_MONTH = 30;\r\n\r\n\r\n\t//Constant value of one month\r\n\t// uint256 constant ONE_MONTH = 60 * 60 * 24 * DAY_OF_MONTH;\r\n\tuint256 constant ONE_MONTH = 1 * 1 * 1 * DAY_OF_MONTH;\r\n\r\n\r\n\r\n\t/*\r\n\tDescription:\r\n\tAdmin function, just call it every day from admin account.\r\n\tModify the codes to make sure it is admin who call this function.\r\n\t */\r\n\tfunction adminFunc() public returns(bool){\r\n\r\n\t\t//Check if it is admin who calls this function from here:\r\n\r\n\t\t//User credit management from here:\r\n\t\tfor(uint256 i = 0; i < hasCreditUser.length; i ++){\r\n\t\t\taddress user = hasCreditUser[i];\r\n\r\n\t\t\tif(balances[user] >= INCREASE_LINE){\r\n\t\t\t\tbelow_standard_times[user] = 0;\r\n\t\t\t\tabove_increase_times[user] += 1;\r\n\t\t\t\tif(above_increase_times[user] == 30){\r\n\t\t\t\t\tincreaseUserCredit(user);\r\n\t\t\t\t\tabove_increase_times[user] = 0;\r\n\t\t\t\t}\r\n\t\t\t}\r\n\t\t\telse{\r\n\t\t\t\tabove_increase_times[user] = 0;\r\n\t\t\t\tif(balances[user] < STANDARD_LINE){\r\n\t\t\t\t\tbelow_standard_times[user] += 1;\r\n\t\t\t\t\tif(below_standard_times[user] == 30){\r\n\t\t\t\t\t\tif(credit[user] > 11){\r\n\t\t\t\t\t\t\tdecreaseUserCredit(user);\r\n\t\t\t\t\t\t}\r\n\t\t\t\t\t\tbelow_standard_times[user] = 0;\r\n\t\t\t\t\t}\r\n\t\t\t\t}\r\n\t\t\t\telse{\r\n\t\t\t\t\tbelow_standard_times[user] = 0;\r\n\t\t\t\t}\r\n\t\t\t}\r\n\t\t}\r\n\r\n\r\n\t\t//Auto repay from here:\r\n\t\tfor(uint256 i = 0; i < debts_list.length; i ++){\r\n\t\t\t//Get the Debt and corresponding Borrow\r\n\t\t\tDebt storage debt = debts_list[i];\r\n\t\t\tBorrow storage borrow = borrow_list[debt.borrowIndex];\r\n\r\n\t\t\t//Jump to next index if this Borrow is already payoff or It has not reached the next repay time\r\n\t\t\tif(borrow.isPayOff || (borrow.nextRepayTime > block.timestamp)){\r\n\t\t\t\tcontinue;\r\n\t\t\t}\r\n\r\n\t\t\t//Now current Borrow exceeds the next repayment time\r\n\t\t\tuint256 accumulatedValue = calculateAccumulatedValue(borrow.amountToPay, borrow.interestRate, borrow.lastRepayTime, block.timestamp);\r\n\t\t\tuint256 repayAmount = ((accumulatedValue / 10) == 0) ? accumulatedValue : (accumulatedValue / 10);\r\n\t\t\tif(balances[borrow.borrowerAddress] < repayAmount){\r\n\t\t\t\tdecreaseUserCredit(borrow.borrowerAddress);\r\n\t\t\t}\r\n\t\t\telse{\r\n\t\t\t\tautoPayLoanByDeposit(repayAmount, i);\r\n\t\t\t}\r\n\t\t}\r\n\t}\r\n\t\r\n\r\n\t/*\r\n\tDescription:\r\n\tWhen a user want to borrow money\r\n\tThey could call this function and input the require amount\r\n\tManager will store the new Borrow to borrow_list\r\n\t\r\n\tInput:\r\n\trequire_amount: Amount that user wants to borrow, unit is Wei\r\n\r\n\tReturn:\r\n\tbool: success -> true; fail -> false\r\n\t*/\r\n\tfunction postBorrow(uint256 require_amount) public returns(bool){\r\n\t\t//Check if this user has the user credit\r\n\t\tupdateUserCredit(msg.sender);\r\n\t    //Get the interest rate according to user's credit\r\n\t    uint256 interest_rate = calculateInterestRate(msg.sender);\r\n\t    \r\n\t    //We require user has a credit >= 3, if not satisfy, this user is banned to borrow money\r\n\t    require(credit[msg.sender] >= 3);\r\n\t    //We require the amount that user input should > 0  \r\n\t    require(require_amount > 0);\r\n\t    //We require the amount that user input should <= maximum amount that he can borrow\r\n\t    //require(require_amount <= getUserMaximumBorrowAmount());\r\n\r\n\t    //Create the borrow\r\n\t    Borrow memory borrow = Borrow(borrow_list.length, 0, 0, interest_rate, msg.sender, require_amount, 0, 0, 0, false, false, require_amount);\r\n\t    \r\n\t    //Put the borrow into borrow_list\r\n\t    borrow_list.push(borrow);\r\n\t    \r\n\t    return(true);\r\n\t}\r\n\r\n\r\n\t/*\r\n\tDescription:\r\n\tUser lend money to borrower from his wallet\r\n\tWhen user find a specific Borrow to lend\r\n\tFirstly he should write down the index of that Borrow\r\n\tThen he can call this function to lend money from the user's wallet\r\n\tNote: when calling this function, remember to put the amount of transfer value(in user's wallet)\r\n\t\r\n\tInput:\r\n\tindex: Index of the Borrow in borrow_list\r\n\r\n\tReturn:\r\n\tbool: success -> true; fail -> false\r\n\t*/\r\n\tfunction lendMoney(uint256 index) payable public returns(bool){\r\n\t\t//Get the Borrow from borrow_list\r\n\t    Borrow storage borrow = borrow_list[index];\r\n\t    \r\n\t    //Require this user and borrower are not the same\r\n\t    require(msg.sender != borrow.borrowerAddress);\r\n\t    //Require the money that this user lend is > 0\r\n\t    require(msg.value > 0);\r\n\t    //Require the money that this user lend is <= the money thay the borrower request\r\n\t    require(msg.value <= borrow.amountRequest);\r\n\t    \r\n\t    borrow.amountRequest -= msg.value;\r\n\t    borrow.amountToPay += msg.value;\r\n\r\n\r\n\t    if(borrow.lenderNumber > 0){\r\n\t        Debt storage debt_exist = debts_list[borrow.debtIndex];\r\n\t        \r\n\t        debt_exist.lendIndex[borrow.lenderNumber] = lend_list.length;\r\n\t        Lend memory lend = Lend(lend_list.length, borrow.debtIndex, msg.sender, msg.value, msg.value, false, msg.value);\r\n\t        user_debts_index[lend.lenderAddress].push(borrow.debtIndex);\r\n\r\n\t        lend_list.push(lend);\r\n\r\n\t        borrow.lenderNumber += 1;\r\n\t    }\r\n\t    else{\r\n\t    \tborrow.lastRepayTime = block.timestamp;\r\n\t    \tborrow.nextRepayTime = borrow.lastRepayTime + ONE_MONTH;\r\n\r\n\t        uint256[] memory lend_index_list = new uint256[](100);\r\n\r\n\t        Debt memory debt = Debt(debts_list.length, index, lend_index_list);\r\n\t        debt.lendIndex[borrow.lenderNumber] = lend_list.length;\r\n\t        \r\n\t        user_debts_index[borrow.borrowerAddress].push(debts_list.length );\r\n\t        user_debts_index[msg.sender].push(debts_list.length);\r\n\r\n\t        Lend memory lend = Lend(lend_list.length, debts_list.length, msg.sender, msg.value, msg.value, false, msg.value);\r\n\t        borrow.debtIndex = debts_list.length;\r\n\r\n\t        debts_list.push(debt);\r\n\t        lend_list.push(lend);\r\n\r\n\t        borrow.lenderNumber += 1;\r\n\t    }\r\n\t    \r\n\t    \r\n\t    if((borrow.lenderNumber == 100) || (borrow.amountRequest == 0)){\r\n\t        borrow.isLend = true;\r\n\t    }    \r\n\t    \r\n\t    //Add the balances of borrower\r\n\t    balances[borrow.borrowerAddress] += msg.value;\r\n\t    \r\n\t    return(true);\r\n\t}\r\n\r\n\r\n\t/*\r\n\tDescription:\r\n\tUser lend money to a borrower from his balance\r\n\tWhen user find a specific Borrow to lend\r\n\tFirstly he should write down the index of that Borrow\r\n\tThen he can call this function to lend money from the user's balances\r\n\tNote: when calling this function, remember to put the amount as an input variable\r\n\t\r\n\tInput:\r\n\tamount:\tAmount that the user wants to lend (unit: Wei)\r\n\tindex:\tIndex of the Borrow in borrow_list\r\n\r\n\tReturn:\r\n\tbool: success -> true; fail -> false\r\n\t*/\r\n\tfunction lendMoneyByDeposit(uint256 amount, uint256 index) public returns(bool){\r\n\t\t//Get the Borrow from borrow_list\r\n\t    Borrow storage borrow = borrow_list[index];\r\n\t    \r\n\t    //Require this user and borrower are not the same\r\n\t    require(msg.sender != borrow.borrowerAddress);\r\n\t    //Require the money that this user lend is > 0\r\n\t    require(amount > 0);\r\n\t    //Require the money that this user lend is <= the money thay the borrower request\r\n\t    require(amount <= borrow.amountRequest);\r\n\t    //Require the money that this user lend is <= the balance of this user\r\n\t    require(amount <= balances[msg.sender]);\r\n\r\n\t    \r\n\t    borrow.amountRequest -= amount;\r\n\t    borrow.amountToPay += amount;\r\n\r\n\r\n\t    if(borrow.lenderNumber > 0){\r\n\r\n\t    \tDebt storage debt_exist = debts_list[borrow.debtIndex];\r\n\t        \r\n\t        debt_exist.lendIndex[borrow.lenderNumber] = lend_list.length;\r\n\t        Lend memory lend = Lend(lend_list.length, borrow.debtIndex, msg.sender, amount, amount, false, amount);\r\n\t        user_debts_index[lend.lenderAddress].push(borrow.debtIndex);\r\n\r\n\t        lend_list.push(lend);\r\n\r\n\t        borrow.lenderNumber += 1;\r\n\t        \r\n\t    }\r\n\t    else{\r\n\r\n\t    \tborrow.lastRepayTime = block.timestamp;\r\n\t    \tborrow.nextRepayTime = borrow.lastRepayTime + ONE_MONTH;\r\n\r\n\t    \tuint256[] memory lend_index_list = new uint256[](100);\r\n\r\n\t        Debt memory debt = Debt(debts_list.length, index, lend_index_list);\r\n\t        debt.lendIndex[borrow.lenderNumber] = lend_list.length;\r\n\t        \r\n\t        user_debts_index[borrow.borrowerAddress].push(debts_list.length );\r\n\t        user_debts_index[msg.sender].push(debts_list.length);\r\n\r\n\t        Lend memory lend = Lend(lend_list.length, debts_list.length, msg.sender, amount, amount, false, amount);\r\n\t        borrow.debtIndex = debts_list.length;\r\n\r\n\t        debts_list.push(debt);\r\n\t        lend_list.push(lend);\r\n\r\n\t        borrow.lenderNumber += 1;\r\n\r\n\t    }\r\n\t    \r\n\t    \r\n\t    if((borrow.lenderNumber == 100) || (borrow.amountRequest == 0)){\r\n\t        borrow.isLend = true;\r\n\t    }    \r\n\t    \r\n\t    //Add the balances of borrower\r\n\t    balances[borrow.borrowerAddress] += amount;\r\n\t    //Deduce the balances of lender\r\n\t    balances[msg.sender] -= amount;\r\n\t    \r\n\t    return(true);\r\n\t}\r\n\r\n\r\n\t/*\r\n\tDescription:\r\n\tUse this function to calculate the accumulated value of this time stampe\r\n\tYou should call this function to show the user the accumulated value of a Borrow before he repays money\r\n\t\r\n\tInput:\r\n\tamount_to_pay:\t\tamount to pay of a Borrow, which is borrow.amountToPay\r\n\tinterest_rate:\t\tinterest rate of a Borrow, which is borrow.interestRate\r\n\tlast_repay_time:\tlast repay time of a Borrow, which is borrow.lastRepayTime\r\n\tcurrent_timestamp:\tcurrent time stamp\r\n\r\n\tReturn:\r\n\taccumulatedValue: the accumulatedValue of current timestamp\r\n\t*/\r\n\tfunction calculateAccumulatedValue(uint256 amount_to_pay, uint256 interest_rate, uint256 last_repay_time, uint256 current_timestamp) public pure returns(uint256 accumulatedValue){\r\n\t\tuint256 number_of_month = (current_timestamp - last_repay_time) / ONE_MONTH;\r\n\t\tuint256 interest = ((number_of_month * (((amount_to_pay * interest_rate) / 100) / 12)) == 0) ? 1 : (number_of_month * (((amount_to_pay * interest_rate) / 100) / 12));\r\n\t\treturn(amount_to_pay + interest);\r\n\t}\r\n\r\n\r\n\t/*\r\n\tDescription:\r\n\tUser can call this function to repay the debt\r\n\tThe money is deduced from his wallet\r\n\tNote: before calling this function, you should call the calculateAccumulatedValue function to get the new amount_to_pay that the user needs to repay\r\n\t\t  show the new amount_to_pay to the user, and require him to repay minimum 10% of the new amount_to_pay, if new amount_to_pay is < 10,\r\n\t\t  then user should pay the value of new amount_to_pay.\r\n\tNote: when calling this function, remember to put the amount of transfer value(in user's wallet)\r\n\t\r\n\tInput:\r\n\tdebtIndex: Index of the Debt in debt_list\r\n\r\n\tReturn:\r\n\tbool: success -> true; fail -> false\r\n\t*/\r\n\tfunction payLoan(uint256 debtIndex) payable public returns(bool){\r\n\t    \r\n\t    Debt storage debt = debts_list[debtIndex]; //Get the debt\r\n\t    \r\n\t    Borrow storage borrow = borrow_list[debt.borrowIndex];\r\n\r\n\t    address borrower = borrow.borrowerAddress;\r\n\t    \r\n\t    require(borrower == msg.sender); //We require the borrower is msg.sender here\r\n\r\n\t    uint256 newAmountToPay = calculateAccumulatedValue(borrow.amountToPay, borrow.interestRate, borrow.lastRepayTime, block.timestamp);\r\n\t    uint256 oldAmount = borrow.amountToPay;\r\n\t    borrow.amountToPay = newAmountToPay;\r\n\r\n\t    require(msg.value <= borrow.amountToPay); //We also require the msg.value should be less than owed money\r\n\t    //Require minimum repay amount = new amount_to_pay * 10%\r\n\t    uint256 minimumAmount = ((newAmountToPay / 10) == 0) ? newAmountToPay : (newAmountToPay / 10);\r\n\t    require(msg.value >= minimumAmount);\r\n\t    \r\n\t    borrow.amountToPay -= msg.value;\r\n\t    for(uint256 i = 0; i < borrow.lenderNumber; i ++){\r\n\t    \tLend storage lend = lend_list[debt.lendIndex[i]];\r\n\t    \tif(!lend.isPayOff){\r\n\t    \t\tlend.amountRemain = division(lend.amountRemain, oldAmount, 3) * newAmountToPay / 1000;\r\n\t    \t\tuint256 repayValue = (lend.amountRemain == 0) ? 0 : (msg.value * division(lend.amountRemain, newAmountToPay, 3) / 1000);\r\n\t    \t\tif(repayValue >= lend.amountRemain){\r\n\t    \t\t\tlend.amountRemain = 0;\r\n\t    \t\t}\r\n\t    \t\telse{\r\n\t    \t\t\tlend.amountRemain -= repayValue;\r\n\t    \t\t}\r\n\t    \t\tbalances[lend.lenderAddress] += repayValue;\r\n\t    \t\tif(lend.amountRemain == 0){\r\n\t    \t\t\tlend.isPayOff = true;\r\n\t    \t\t}\r\n\t    \t}\r\n\t    }\r\n\t    \r\n\t    borrow.lastRepayTime = block.timestamp;\r\n\r\n\t    //If the debt is paid off\r\n\t    if(borrow.amountToPay == 0){\r\n\t        borrow.isPayOff = true;\r\n\t        borrow.nextRepayTime = 0;\r\n\t    }\r\n\t    else{\r\n\t    \tborrow.nextRepayTime +=  ONE_MONTH;\r\n\t    }\r\n\t    \r\n\t    return(true);\r\n\t}\r\n\r\n\r\n\t/*\r\n\tDescription:\r\n\tUser can call this function to repay the debt\r\n\tThe money is deduced from his balance\r\n\tNote: before calling this function, you should call the calculateAccumulatedValue function to get the new amount_to_pay that the user needs to repay\r\n\t\t  show the new amount_to_pay to the user, and require him to repay minimum 10% of the new amount_to_pay, if new amount_to_pay is < 10,\r\n\t\t  then user should pay the value of new amount_to_pay.\r\n\tNote: when calling this function, remember to put the amount as an input variable\r\n\t\r\n\tInput:\r\n\tamount:\t\tamount that the user wants to repay (require >= 10% of the new amountToPay)\r\n\tdebtIndex:\tIndex of the Debt in debt_list\r\n\r\n\tReturn:\r\n\tbool: success -> true; fail -> false\r\n\t*/\r\n\tfunction payLoanByDeposit(uint256 amount, uint256 debtIndex) public returns(bool){\r\n\t\t\r\n\t\tDebt storage debt = debts_list[debtIndex]; //Get the debt\r\n\t    \r\n\t    Borrow storage borrow = borrow_list[debt.borrowIndex];\r\n\r\n\t    address borrower = borrow.borrowerAddress;\r\n\t    \r\n\t    require(borrower == msg.sender); //We require the borrower is msg.sender here\r\n\t    require(balances[msg.sender] >= amount); //Require caller has enough balances\r\n\r\n\t    uint256 newAmountToPay = calculateAccumulatedValue(borrow.amountToPay, borrow.interestRate, borrow.lastRepayTime, block.timestamp);\r\n\t    uint256 oldAmount = borrow.amountToPay;\r\n\t    borrow.amountToPay = newAmountToPay;\r\n\r\n\t    require(amount <= borrow.amountToPay); //We also require the msg.value should be less than owed money\r\n\t    //Require minimum repay amount = new amount_to_pay * 10%\r\n\t    uint256 minimumAmount = ((newAmountToPay / 10) == 0) ? newAmountToPay : (newAmountToPay / 10);\r\n\t    require(amount >= minimumAmount);\r\n\t    \r\n\t    borrow.amountToPay -= amount;\r\n\t    for(uint256 i = 0; i < borrow.lenderNumber; i ++){\r\n\t    \tLend storage lend = lend_list[debt.lendIndex[i]];\r\n\t    \tif(!lend.isPayOff){\r\n\t    \t\tlend.amountRemain = division(lend.amountRemain, oldAmount, 3) * newAmountToPay / 1000;\r\n\t    \t\tuint256 repayValue = (lend.amountRemain == 0) ? 0 : (amount * division(lend.amountRemain, newAmountToPay, 3) / 1000);\r\n\t    \t\tif(repayValue > lend.amountRemain){\r\n\t    \t\t\tlend.amountRemain = 0;\r\n\t    \t\t}\r\n\t    \t\telse{\r\n\t    \t\t\tlend.amountRemain -= repayValue;\r\n\t    \t\t}\r\n\t    \t\tbalances[lend.lenderAddress] += repayValue;\r\n\t    \t\tif(lend.amountRemain == 0){\r\n\t    \t\t\tlend.isPayOff = true;\r\n\t    \t\t}\r\n\t    \t}\r\n\t    }\r\n\r\n\t    borrow.lastRepayTime = block.timestamp;\r\n\r\n\t    //If the debt is paid off\r\n\t    if(borrow.amountToPay == 0){\r\n\t        borrow.isPayOff = true;\r\n\t        borrow.nextRepayTime = 0;\r\n\t    }\r\n\t    else{\r\n\t    \tborrow.nextRepayTime += ONE_MONTH;\r\n\t    }\r\n\r\n\t    balances[msg.sender] -= amount;\r\n\t    \r\n\t    return(true);\r\n\t}\r\n\r\n\r\n\t/*\r\n\tDescription:\r\n\tDeposit money to contract, after successfully deposit, money value will be shown in user's balance\r\n\r\n\tReturn:\r\n\tbool: success -> true; fail -> false\r\n\t*/\r\n\tfunction deposit() payable public returns(bool){\r\n\r\n\t\tupdateUserCredit(msg.sender);\r\n\r\n        balances[msg.sender] += msg.value;\r\n\r\n        return(true);\r\n    }\r\n\r\n\r\n    /*\r\n    Description:\r\n    Get the user's balance\r\n\r\n    Return:\r\n    user's balance value\r\n\t*/\r\n\tfunction getBalance() public view returns(uint256){\r\n\t    return balances[msg.sender];\r\n\t} \r\n\r\n\r\n\t/*\r\n\tDescription:\r\n\tWithdraw money from smart contract to current user's wallet\r\n\r\n\tInput:\r\n\tamount: amount that the user wants to withdraw, we require amount <= value in user's balance\r\n\r\n\tReturn:\r\n\tbool: success -> true; fail -> false\r\n\t*/\r\n\tfunction withdrawl(uint256 amount) public returns(bool){\r\n\t    address payable caller = msg.sender;\r\n\t    require(amount <= balances[msg.sender]);\r\n\t\tcaller.transfer(amount);\r\n\t\tbalances[msg.sender] -= amount;\r\n\t\t\r\n\t\treturn(true);\r\n\t}\r\n\r\n\r\n\t/*\r\n\tDescription:\r\n\tGet the maximum amount that the user can borrow\r\n\r\n\tReturn:\r\n\tuint256: maximum amount\r\n\t*/\r\n\tfunction getUserMaximumBorrowAmount() public view returns(uint256){\r\n\t\treturn((credit[msg.sender] == 0) ? (10**19) : (credit[msg.sender] * (10**18)));\r\n\t}\r\n\r\n\r\n\t/*\r\n\tDescription:\r\n\tOnly with those users that posted a Borrow before or deposit money before will return a correct credit\r\n\tOtherwise it will return 0, if it returns 0, just show 10 (initial credit) to user\r\n\r\n\tReturn:\r\n\tuint256: credit of user\r\n\t*/\r\n\tfunction getUserCredit() public view returns(uint256){\r\n\t\treturn((credit[msg.sender] == 0) ? 10 : credit[msg.sender]);\r\n\t}\r\n\t\r\n\r\n\t/*\r\n\tDescription:\r\n\tGet the length of the borrow_list\r\n\r\n\tReturn:\r\n\tlength: length of borrow_list\r\n\t*/\r\n\tfunction getBorrowListLength() public view returns(uint256 length){\r\n\t\treturn(borrow_list.length);\r\n\t}\r\n\r\n\r\n\t/*\r\n\tDescription:\r\n\tGet the information of a Borrow in borrow_list\r\n\r\n\tInput:\r\n\tindex: index of a Borrow in borrow_list\r\n\r\n\tReturn:\r\n\tAll fields of a Borrow\r\n\t*/\r\n\tfunction getBorrowInfoFromBorrowList(uint256 index) public view \r\n\t\treturns(uint256 borrow_index, uint256 debt_index, uint256 lenderNumber, uint256 interest_rate, address borrower, \r\n\t\t\t\tuint256 amount_request, uint256 amount_to_pay, uint256 last_repay_time, uint256 next_repay_time,\r\n\t\t\t\tbool is_lend, bool is_pay_off, uint256 initial_request){\r\n\r\n\t    //We require index is less than the length of borrow_list here\r\n\t    require(index < borrow_list.length);\r\n\t    \r\n\t    //Get the required Borrow from borrow_list\r\n\t    Borrow storage borrow = borrow_list[index];\r\n\t    \r\n\t    //Return the information\r\n\t    return(borrow.index, borrow.debtIndex, borrow.lenderNumber, borrow.interestRate, borrow.borrowerAddress,\r\n\t    \tborrow.amountRequest, borrow.amountToPay, borrow.lastRepayTime, borrow.nextRepayTime, borrow.isLend, borrow.isPayOff, borrow.initialRequest);\r\n\t}\r\n\r\n\r\n\t/*\r\n\tDescription:\r\n\tGet the length of the lend_list\r\n\r\n\tReturn:\r\n\tlength: length of lend_list\r\n\t*/\r\n\tfunction getLendListLength() public view returns(uint256 length){\r\n\t\treturn(lend_list.length);\r\n\t}\r\n\r\n\r\n\t/*\r\n\tDescription:\r\n\tGet the information of a Lend in lend_list\r\n\r\n\tInput:\r\n\tindex: index of a Lend in lend_list\r\n\r\n\tReturn:\r\n\tAll fields of a Lend\r\n\t*/\r\n\tfunction getLendInfoFromBorrowList(uint256 index) public view\r\n\t\treturns(uint256 lend_index, uint256 debt_index, address lenderAddress, uint256 lend_amount, uint256 amount_remain, bool is_pay_off, uint256 initial_lend){\r\n\r\n\t\t//We require index is less than the length of lend_list here\r\n\t    require(index < lend_list.length);\r\n\r\n\t    //Get the required Lend from lend_list\r\n\t\tLend storage lend = lend_list[index];\r\n\r\n\t\t//Return the information\r\n\t\treturn(lend.index, lend.debtIndex, lend.lenderAddress, lend.lendAmount, lend.amountRemain, lend.isPayOff, lend.initialLend);\r\n\t}\r\n\r\n\r\n\t/*\r\n\tDescription:\r\n\tGet the length of the debts_list\r\n\r\n\tReturn:\r\n\tlength: length of debts_list\r\n\t*/\r\n\tfunction getDebtListLength() public view returns(uint256 length){\r\n\t\treturn(debts_list.length);\r\n\t}\r\n\r\n\r\n\t/*\r\n\tDescription:\r\n\tGet the information of a Debt in debts_list\r\n\r\n\tInput:\r\n\tindex: index of a Debt in debts_list\r\n\r\n\tReturn:\r\n\tborrow_index: index of the corresponding Borrow in borrow_list\r\n\tlend_index: index list of all the corresponding Lend in lend_list\r\n\tlender_number: number of the lenders (length of the lend_index)\r\n\t*/\r\n\tfunction getDebtInfoFromDebtsList(uint256 index) public view returns(uint256 borrow_index, uint256[] memory lend_index, uint256 lender_number){\r\n\r\n\t\t//We require index is less than the length of debts_list here\r\n\t    require(index < debts_list.length);\r\n\r\n\t    //Get the required Debt from debts_list\r\n\t\tDebt storage debt = debts_list[index];\r\n\r\n\t\t//Get the corresponding Borrow from borrow_list\r\n\t\tBorrow storage borrow = borrow_list[debt.borrowIndex];\r\n\r\n    \tuint256 count = borrow.lenderNumber;\r\n    \tuint256[] memory index_list = new uint256[](count);\r\n\r\n    \t//Put all the indexs into index_list\r\n\t    for(uint256 i = 0; i < count; i ++){\r\n\t        index_list[i] = debt.lendIndex[i];\r\n\t    }\r\n\r\n\t    return(debt.borrowIndex, index_list, count);\r\n\t}\r\n\r\n\r\n\t/*\r\n\tDescription:\r\n\tGet an array of all the Debt's index in debts_list of this user\r\n\r\n\tReturn:\r\n\tdebts_index_list: a list that contains all the Debt's index of this user\r\n\tlength: length of debts_index_list \r\n\t*/\r\n\tfunction getUserDebtIndexList() public view returns(uint256[] memory debts_index_list, uint256 length){\r\n\t    uint256 count = user_debts_index[msg.sender].length;\r\n\t    uint256[] memory index_list = new uint256[](count);\r\n\t    \r\n\t    //Put all the indexs that belong to msg.sender into index_list\r\n\t    for(uint256 i = 0; i < count; i ++){\r\n\t        index_list[i] = user_debts_index[msg.sender][i];\r\n\t    }\r\n\t    \r\n\t    return(index_list, index_list.length);\r\n\t}\r\n\t\r\n\t\r\n\t/*\r\n\tDescription:\r\n\tGet the user role of a Debt.\r\n\t\r\n\tInput:\r\n\tdebtIndex: index of a Debt in debts_list\r\n\r\n\tReturn:\r\n\tuser_role: 1 -> this user is borrower in this Debt\r\n\t\t\t   2 -> this user is lender in this Debt\r\n\t */\r\n\tfunction getUserDebtRole(uint256 debtIndex) public view returns(uint256 user_role){\r\n\t    Borrow storage borrow = borrow_list[debts_list[debtIndex].borrowIndex];\r\n\t    \r\n\t    uint256 role = 2;\r\n\t    if(borrow.borrowerAddress == msg.sender){\r\n\t        role = 1;\r\n\t    }\r\n\t    \r\n\t    return(role);\r\n\t}\r\n\t\r\n\t\r\n\tfunction updateUserCredit(address user) private{\r\n\t    if(credit[user] == 0){\r\n\t    \thasCreditUser.push(user);\r\n\t        credit[user] = 10;\r\n\t    }\r\n\t}\r\n\t\r\n\tfunction decreaseUserCredit(address user) private{\r\n\t    if(credit[user] > 1){\r\n\t        credit[user] -= 1;\r\n\t    }\r\n\t}\r\n\t\r\n\tfunction increaseUserCredit(address user) private{\r\n\t    credit[user] += 1;\r\n\t}\r\n\t\r\n\r\n\tfunction calculateInterestRate(address user) public view returns(uint256 interest_rate){\r\n\t\t// updateUserCredit(user);\r\n\t    uint256 user_credit = credit[user];\r\n\t    uint256 rate = 0;\r\n\r\n\t    if(user_credit > 10){\r\n            if(12 - (user_credit - 10) <= 1){\r\n                rate = 1;\r\n            }\r\n            else{\r\n                rate = 12 - (user_credit - 10);\r\n            }\r\n        }\r\n        else if(user_credit == 10){\r\n            rate = 12;\r\n        }\r\n        else{\r\n            rate = 12 + (10 - user_credit);\r\n        }\r\n\t    \r\n\t    if(user_credit==0){\r\n\t    \trate = 12;\r\n\t    \treturn(rate);\r\n\t    }\r\n\r\n\t    return(rate);\r\n\t}\r\n\r\n\r\n\tfunction autoPayLoanByDeposit(uint256 amount, uint256 debtIndex) private returns(bool){\r\n\t\t\r\n\t\tDebt storage debt = debts_list[debtIndex]; //Get the debt\r\n\t    \r\n\t    Borrow storage borrow = borrow_list[debt.borrowIndex];\r\n\r\n\t    uint256 newAmountToPay = calculateAccumulatedValue(borrow.amountToPay, borrow.interestRate, borrow.lastRepayTime, block.timestamp);\r\n\t    uint256 oldAmount = borrow.amountToPay;\r\n\t    borrow.amountToPay = newAmountToPay;\r\n\r\n\t    borrow.amountToPay -= amount;\r\n\r\n\t    for(uint256 i = 0; i < borrow.lenderNumber; i ++){\r\n\t    \tLend storage lend = lend_list[debt.lendIndex[i]];\r\n\t    \tif(!lend.isPayOff){\r\n\t    \t\tlend.amountRemain = division(lend.amountRemain, oldAmount, 3) * newAmountToPay / 1000;\r\n\t    \t\tuint256 repayValue = (lend.amountRemain == 0) ? 0 : (amount * division(lend.amountRemain, newAmountToPay, 3) / 1000);\r\n\t    \t\tif(repayValue > lend.amountRemain){\r\n\t    \t\t\tlend.amountRemain = 0;\r\n\t    \t\t}\r\n\t    \t\telse{\r\n\t    \t\t\tlend.amountRemain -= repayValue;\r\n\t    \t\t}\r\n\t    \t\tbalances[lend.lenderAddress] += repayValue;\r\n\t    \t\tif(lend.amountRemain == 0){\r\n\t    \t\t\tlend.isPayOff = true;\r\n\t    \t\t}\r\n\t    \t}\r\n\t    }\r\n\r\n\t    borrow.lastRepayTime = block.timestamp;\r\n\r\n\t    //If the debt is paid off\r\n\t    if(borrow.amountToPay == 0){\r\n\t        borrow.isPayOff = true;\r\n\t        borrow.nextRepayTime = 0;\r\n\t    }\r\n\t    else{\r\n\t    \tborrow.nextRepayTime += ONE_MONTH;\r\n\t    }\r\n\r\n\t    balances[borrow.borrowerAddress] -= amount;\r\n\t    \r\n\t    return(true);\r\n\t}\r\n\r\n\t\r\n\t/*\r\n\tDescription:\r\n\tThis function is used to achieve division in solidity\r\n\r\n\tReturn:\r\n\tquotient: the division result.\r\n\t */\r\n\tfunction division(uint256 numerator, uint256 denominator, uint256 precision) private pure returns(uint256 quotient) {\r\n         return numerator * ( 10**precision ) / denominator;\r\n\t}\r\n\r\n}\r\n",
  "sourcePath": "/Users/michaelmao/Downloads/CSE FYP/LBAPP-13-04-working/contracts/Manager.sol",
  "compiler": {
    "name": "solc",
    "version": "0.5.0+commit.1d4f565a.Emscripten.clang"
  },
  "schemaVersion": "3.0.6",
  "updatedAt": "2019-04-23T17:59:32.469Z",
  "devdoc": {
    "methods": {}
  },
  "userdoc": {
    "methods": {}
  }
}