{
  "contractName": "UserProfile",
  "abi": [
    {
      "constant": false,
      "inputs": [
        {
          "name": "addr",
          "type": "string"
        },
        {
          "name": "name",
          "type": "string"
        }
      ],
      "name": "updateUserName",
      "outputs": [
        {
          "name": "",
          "type": "bool"
        }
      ],
      "payable": false,
      "stateMutability": "nonpayable",
      "type": "function",
      "signature": "0x84c1cba8"
    },
    {
      "constant": true,
      "inputs": [
        {
          "name": "addr",
          "type": "string"
        }
      ],
      "name": "getUserName",
      "outputs": [
        {
          "name": "",
          "type": "string"
        }
      ],
      "payable": false,
      "stateMutability": "view",
      "type": "function",
      "signature": "0x7228c6e0"
    },
    {
      "constant": false,
      "inputs": [
        {
          "name": "addr",
          "type": "string"
        },
        {
          "name": "email",
          "type": "string"
        }
      ],
      "name": "updateEmail",
      "outputs": [
        {
          "name": "",
          "type": "bool"
        }
      ],
      "payable": false,
      "stateMutability": "nonpayable",
      "type": "function",
      "signature": "0x27897557"
    },
    {
      "constant": true,
      "inputs": [
        {
          "name": "addr",
          "type": "string"
        }
      ],
      "name": "getEmail",
      "outputs": [
        {
          "name": "",
          "type": "string"
        }
      ],
      "payable": false,
      "stateMutability": "view",
      "type": "function",
      "signature": "0xf77e8bd7"
    },
    {
      "constant": false,
      "inputs": [
        {
          "name": "addr",
          "type": "string"
        },
        {
          "name": "ipfsHash",
          "type": "string"
        }
      ],
      "name": "updateProfilePic",
      "outputs": [
        {
          "name": "",
          "type": "bool"
        }
      ],
      "payable": false,
      "stateMutability": "nonpayable",
      "type": "function",
      "signature": "0xcca55dff"
    },
    {
      "constant": true,
      "inputs": [
        {
          "name": "addr",
          "type": "string"
        }
      ],
      "name": "getProfilePic",
      "outputs": [
        {
          "name": "",
          "type": "string"
        }
      ],
      "payable": false,
      "stateMutability": "view",
      "type": "function",
      "signature": "0x83181e72"
    },
    {
      "constant": false,
      "inputs": [
        {
          "name": "addr",
          "type": "string"
        },
        {
          "name": "ipfsHash",
          "type": "string"
        }
      ],
      "name": "updateIncomeProof",
      "outputs": [
        {
          "name": "",
          "type": "bool"
        }
      ],
      "payable": false,
      "stateMutability": "nonpayable",
      "type": "function",
      "signature": "0x37773e84"
    },
    {
      "constant": true,
      "inputs": [
        {
          "name": "addr",
          "type": "string"
        }
      ],
      "name": "getIncomeProof",
      "outputs": [
        {
          "name": "",
          "type": "string"
        }
      ],
      "payable": false,
      "stateMutability": "view",
      "type": "function",
      "signature": "0x6dc3e0a2"
    }
  ],
  "bytecode": "0x60806040526040805190810160405280600481526020017f3132333400000000000000000000000000000000000000000000000000000000815250600090805190602001906200005192919062000066565b503480156200005f57600080fd5b5062000115565b828054600181600116156101000203166002900490600052602060002090601f016020900481019282601f10620000a957805160ff1916838001178555620000da565b82800160010185558215620000da579182015b82811115620000d9578251825591602001919060010190620000bc565b5b509050620000e99190620000ed565b5090565b6200011291905b808211156200010e576000816000905550600101620000f4565b5090565b90565b61175880620001256000396000f3fe60806040526004361061008e576000357c0100000000000000000000000000000000000000000000000000000000900463ffffffff168063278975571461009357806337773e841461020a5780636dc3e0a2146103815780637228c6e0146104c257806383181e721461060357806384c1cba814610744578063cca55dff146108bb578063f77e8bd714610a32575b600080fd5b34801561009f57600080fd5b506101f0600480360360408110156100b657600080fd5b81019080803590602001906401000000008111156100d357600080fd5b8201836020820111156100e557600080fd5b8035906020019184600183028401116401000000008311171561010757600080fd5b91908080601f016020809104026020016040519081016040528093929190818152602001838380828437600081840152601f19601f8201169050808301925050505050505091929192908035906020019064010000000081111561016a57600080fd5b82018360208201111561017c57600080fd5b8035906020019184600183028401116401000000008311171561019e57600080fd5b91908080601f016020809104026020016040519081016040528093929190818152602001838380828437600081840152601f19601f820116905080830192505050505050509192919290505050610b73565b604051808215151515815260200191505060405180910390f35b34801561021657600080fd5b506103676004803603604081101561022d57600080fd5b810190808035906020019064010000000081111561024a57600080fd5b82018360208201111561025c57600080fd5b8035906020019184600183028401116401000000008311171561027e57600080fd5b91908080601f016020809104026020016040519081016040528093929190818152602001838380828437600081840152601f19601f820116905080830192505050505050509192919290803590602001906401000000008111156102e157600080fd5b8201836020820111156102f357600080fd5b8035906020019184600183028401116401000000008311171561031557600080fd5b91908080601f016020809104026020016040519081016040528093929190818152602001838380828437600081840152601f19601f820116905080830192505050505050509192919290505050610ca3565b604051808215151515815260200191505060405180910390f35b34801561038d57600080fd5b50610447600480360360208110156103a457600080fd5b81019080803590602001906401000000008111156103c157600080fd5b8201836020820111156103d357600080fd5b803590602001918460018302840111640100000000831117156103f557600080fd5b91908080601f016020809104026020016040519081016040528093929190818152602001838380828437600081840152601f19601f820116905080830192505050505050509192919290505050610dd3565b6040518080602001828103825283818151815260200191508051906020019080838360005b8381101561048757808201518184015260208101905061046c565b50505050905090810190601f1680156104b45780820380516001836020036101000a031916815260200191505b509250505060405180910390f35b3480156104ce57600080fd5b50610588600480360360208110156104e557600080fd5b810190808035906020019064010000000081111561050257600080fd5b82018360208201111561051457600080fd5b8035906020019184600183028401116401000000008311171561053657600080fd5b91908080601f016020809104026020016040519081016040528093929190818152602001838380828437600081840152601f19601f820116905080830192505050505050509192919290505050610f68565b6040518080602001828103825283818151815260200191508051906020019080838360005b838110156105c85780820151818401526020810190506105ad565b50505050905090810190601f1680156105f55780820380516001836020036101000a031916815260200191505b509250505060405180910390f35b34801561060f57600080fd5b506106c96004803603602081101561062657600080fd5b810190808035906020019064010000000081111561064357600080fd5b82018360208201111561065557600080fd5b8035906020019184600183028401116401000000008311171561067757600080fd5b91908080601f016020809104026020016040519081016040528093929190818152602001838380828437600081840152601f19601f8201169050808301925050505050505091929192905050506110fd565b6040518080602001828103825283818151815260200191508051906020019080838360005b838110156107095780820151818401526020810190506106ee565b50505050905090810190601f1680156107365780820380516001836020036101000a031916815260200191505b509250505060405180910390f35b34801561075057600080fd5b506108a16004803603604081101561076757600080fd5b810190808035906020019064010000000081111561078457600080fd5b82018360208201111561079657600080fd5b803590602001918460018302840111640100000000831117156107b857600080fd5b91908080601f016020809104026020016040519081016040528093929190818152602001838380828437600081840152601f19601f8201169050808301925050505050505091929192908035906020019064010000000081111561081b57600080fd5b82018360208201111561082d57600080fd5b8035906020019184600183028401116401000000008311171561084f57600080fd5b91908080601f016020809104026020016040519081016040528093929190818152602001838380828437600081840152601f19601f820116905080830192505050505050509192919290505050611292565b604051808215151515815260200191505060405180910390f35b3480156108c757600080fd5b50610a18600480360360408110156108de57600080fd5b81019080803590602001906401000000008111156108fb57600080fd5b82018360208201111561090d57600080fd5b8035906020019184600183028401116401000000008311171561092f57600080fd5b91908080601f016020809104026020016040519081016040528093929190818152602001838380828437600081840152601f19601f8201169050808301925050505050505091929192908035906020019064010000000081111561099257600080fd5b8201836020820111156109a457600080fd5b803590602001918460018302840111640100000000831117156109c657600080fd5b91908080601f016020809104026020016040519081016040528093929190818152602001838380828437600081840152601f19601f8201169050808301925050505050505091929192905050506113c2565b604051808215151515815260200191505060405180910390f35b348015610a3e57600080fd5b50610af860048036036020811015610a5557600080fd5b8101908080359060200190640100000000811115610a7257600080fd5b820183602082011115610a8457600080fd5b80359060200191846001830284011164010000000083111715610aa657600080fd5b91908080601f016020809104026020016040519081016040528093929190818152602001838380828437600081840152601f19601f8201169050808301925050505050505091929192905050506114f2565b6040518080602001828103825283818151815260200191508051906020019080838360005b83811015610b38578082015181840152602081019050610b1d565b50505050905090810190601f168015610b655780820380516001836020036101000a031916815260200191505b509250505060405180910390f35b6000600360003373ffffffffffffffffffffffffffffffffffffffff1673ffffffffffffffffffffffffffffffffffffffff168152602001908152602001600020829080600181540180825580915050906001820390600052602060002001600090919290919091509080519060200190610bef929190611687565b50506004836040518082805190602001908083835b602083101515610c295780518252602082019150602081019050602083039250610c04565b6001836020036101000a0380198251168184511680821785525050505050509050019150509081526020016040518091039020829080600181540180825580915050906001820390600052602060002001600090919290919091509080519060200190610c97929190611687565b50506001905092915050565b6000600760003373ffffffffffffffffffffffffffffffffffffffff1673ffffffffffffffffffffffffffffffffffffffff168152602001908152602001600020829080600181540180825580915050906001820390600052602060002001600090919290919091509080519060200190610d1f929190611687565b50506008836040518082805190602001908083835b602083101515610d595780518252602082019150602081019050602083039250610d34565b6001836020036101000a0380198251168184511680821785525050505050509050019150509081526020016040518091039020829080600181540180825580915050906001820390600052602060002001600090919290919091509080519060200190610dc7929190611687565b50506001905092915050565b60606008826040518082805190602001908083835b602083101515610e0d5780518252602082019150602081019050602083039250610de8565b6001836020036101000a038019825116818451168082178552505050505050905001915050908152602001604051809103902060016008846040518082805190602001908083835b602083101515610e7a5780518252602082019150602081019050602083039250610e55565b6001836020036101000a03801982511681845116808217855250505050505090500191505090815260200160405180910390208054905003815481101515610ebe57fe5b906000526020600020018054600181600116156101000203166002900480601f016020809104026020016040519081016040528092919081815260200182805460018160011615610100020316600290048015610f5c5780601f10610f3157610100808354040283529160200191610f5c565b820191906000526020600020905b815481529060010190602001808311610f3f57829003601f168201915b50505050509050919050565b60606002826040518082805190602001908083835b602083101515610fa25780518252602082019150602081019050602083039250610f7d565b6001836020036101000a038019825116818451168082178552505050505050905001915050908152602001604051809103902060016002846040518082805190602001908083835b60208310151561100f5780518252602082019150602081019050602083039250610fea565b6001836020036101000a0380198251168184511680821785525050505050509050019150509081526020016040518091039020805490500381548110151561105357fe5b906000526020600020018054600181600116156101000203166002900480601f0160208091040260200160405190810160405280929190818152602001828054600181600116156101000203166002900480156110f15780601f106110c6576101008083540402835291602001916110f1565b820191906000526020600020905b8154815290600101906020018083116110d457829003601f168201915b50505050509050919050565b60606006826040518082805190602001908083835b6020831015156111375780518252602082019150602081019050602083039250611112565b6001836020036101000a038019825116818451168082178552505050505050905001915050908152602001604051809103902060016006846040518082805190602001908083835b6020831015156111a4578051825260208201915060208101905060208303925061117f565b6001836020036101000a038019825116818451168082178552505050505050905001915050908152602001604051809103902080549050038154811015156111e857fe5b906000526020600020018054600181600116156101000203166002900480601f0160208091040260200160405190810160405280929190818152602001828054600181600116156101000203166002900480156112865780601f1061125b57610100808354040283529160200191611286565b820191906000526020600020905b81548152906001019060200180831161126957829003601f168201915b50505050509050919050565b6000600160003373ffffffffffffffffffffffffffffffffffffffff1673ffffffffffffffffffffffffffffffffffffffff16815260200190815260200160002082908060018154018082558091505090600182039060005260206000200160009091929091909150908051906020019061130e929190611687565b50506002836040518082805190602001908083835b6020831015156113485780518252602082019150602081019050602083039250611323565b6001836020036101000a03801982511681845116808217855250505050505090500191505090815260200160405180910390208290806001815401808255809150509060018203906000526020600020016000909192909190915090805190602001906113b6929190611687565b50506001905092915050565b6000600560003373ffffffffffffffffffffffffffffffffffffffff1673ffffffffffffffffffffffffffffffffffffffff16815260200190815260200160002082908060018154018082558091505090600182039060005260206000200160009091929091909150908051906020019061143e929190611687565b50506006836040518082805190602001908083835b6020831015156114785780518252602082019150602081019050602083039250611453565b6001836020036101000a03801982511681845116808217855250505050505090500191505090815260200160405180910390208290806001815401808255809150509060018203906000526020600020016000909192909190915090805190602001906114e6929190611687565b50506001905092915050565b60606004826040518082805190602001908083835b60208310151561152c5780518252602082019150602081019050602083039250611507565b6001836020036101000a038019825116818451168082178552505050505050905001915050908152602001604051809103902060016004846040518082805190602001908083835b6020831015156115995780518252602082019150602081019050602083039250611574565b6001836020036101000a038019825116818451168082178552505050505050905001915050908152602001604051809103902080549050038154811015156115dd57fe5b906000526020600020018054600181600116156101000203166002900480601f01602080910402602001604051908101604052809291908181526020018280546001816001161561010002031660029004801561167b5780601f106116505761010080835404028352916020019161167b565b820191906000526020600020905b81548152906001019060200180831161165e57829003601f168201915b50505050509050919050565b828054600181600116156101000203166002900490600052602060002090601f016020900481019282601f106116c857805160ff19168380011785556116f6565b828001600101855582156116f6579182015b828111156116f55782518255916020019190600101906116da565b5b5090506117039190611707565b5090565b61172991905b8082111561172557600081600090555060010161170d565b5090565b9056fea165627a7a72305820b0a3b098166da687fcae1fde40187130b18e7404730bfda854f043323108a47b0029",
  "source": "pragma solidity ^0.5.0;\n\ncontract UserProfile {\n\n\tstring userName = \"1234\";\n\n\tmapping(address => string []) user_name;\n\tmapping(string => string []) user_name_public;\n\n\tmapping(address => string []) email_contact;\n\tmapping(string => string []) email_contact_public;\n\n\tmapping(address => string []) profile_pic;\n\tmapping(string => string []) profile_pic_public;\n\n\t// mapping(address => string []) public proposals;\n\t// mapping(string => string []) public proposals_public;\n\n\tmapping(address => string []) income_proof;\n\tmapping(string => string []) income_proof_public;\n\n\t// function getUserInfo() public view returns(string memory profile_pic, string memory user_name, string memory email, string memory income_proof, uint256 profile_length, uint256 name_length, uint256 email_length, uint256 proposals_length, uint256 income_length ){\n\t\t\n\t// }\n\n\tfunction updateUserName(string memory addr,string memory name) public returns(bool){\n\t    user_name[msg.sender].push(name);\n\t    user_name_public[addr].push(name);\n\t    // userName = name;\n\t    return(true);\n\t}\n\tfunction getUserName(string memory addr) public view returns(string memory){\n\t    return user_name_public[addr][user_name_public[addr].length-1];\n\t    // return user_name[msg.sender][user_name[msg.sender].length-1];\n\t}\n\t// function getUserNameByOthers(string memory addr) public view returns(string memory){\n\t//     return user_name[addr][user_name[addr].length-1];\n\t// }\n\n\n\tfunction updateEmail(string memory addr,string memory email) public returns(bool){\n\t    email_contact[msg.sender].push(email);\n\t    email_contact_public[addr].push(email);\n\t    return(true);\n\t}\n\tfunction getEmail(string memory addr) public view returns(string memory){\n\t\treturn email_contact_public[addr][email_contact_public[addr].length-1];\n\t    // return email_contact[msg.sender][email_contact[msg.sender].length-1];\n\t}\n\t// function getEmailByOthers(string memory addr) public view returns(string memory){\n\t//     return email_contact[addr][email_contact[addr].length-1];\n\t// }\n\n\n\tfunction updateProfilePic(string memory addr,string memory ipfsHash) public returns(bool){\n\t    profile_pic[msg.sender].push(ipfsHash);\n\t    profile_pic_public[addr].push(ipfsHash);\n\t    return(true);\n\t}\n\tfunction getProfilePic(string memory addr) public view returns(string memory){\n\t    return profile_pic_public[addr][profile_pic_public[addr].length-1];\n\t    // return profile_pic[msg.sender][profile_pic[msg.sender].length-1];\n\t}\n\t// function getProfilePicByOthers(string memory addr) public view returns(string memory){\n\t//     return profile_pic[addr][profile_pic[addr].length-1];\n\t// }\n\n\n\t// function addProposal(string memory addr,string memory ipfsHash) public returns(bool){\n\t//     proposals[msg.sender].push(ipfsHash);\n\t//     return(true);\n\t// }\n\t// function getProposalsLength(string memory addr,string memory addr) public view returns(uint256){\n\t//     return(proposals[msg.sender].length);\n\t// }\n\n\n\tfunction updateIncomeProof(string memory addr,string memory ipfsHash) public returns(bool){\n\t    income_proof[msg.sender].push(ipfsHash);\n\t    income_proof_public[addr].push(ipfsHash);\n\t    return(true);\n\t}\n\tfunction getIncomeProof(string memory addr) public view returns(string memory){\n\t\treturn income_proof_public[addr][income_proof_public[addr].length-1];\n\t    // return income_proof[msg.sender][income_proof[msg.sender].length-1];\n\t}\n\t// function getIncomeProofByOthers(string memory addr) public view returns(string memory){\n\t//     return income_proof[addr][income_proof[addr].length-1];\n\t// }\n}",
  "sourcePath": "/Users/michaelmao/Downloads/CSE FYP/LBAPP-13-04-working/contracts/UserProfile.sol",
  "compiler": {
    "name": "solc",
    "version": "0.5.0+commit.1d4f565a.Emscripten.clang"
  },
  "schemaVersion": "3.0.6",
  "updatedAt": "2019-04-23T17:59:32.439Z",
  "devdoc": {
    "methods": {}
  },
  "userdoc": {
    "methods": {}
  }
}